{
  "address": "0x9EAF333044ea90c849b127e60BB297AdE115D12c",
  "abi": [
    {
      "inputs": [],
      "stateMutability": "nonpayable",
      "type": "constructor"
    },
    {
      "anonymous": false,
      "inputs": [
        {
          "indexed": true,
          "internalType": "address",
          "name": "owner",
          "type": "address"
        },
        {
          "indexed": true,
          "internalType": "address",
          "name": "spender",
          "type": "address"
        },
        {
          "indexed": false,
          "internalType": "uint256",
          "name": "value",
          "type": "uint256"
        }
      ],
      "name": "Approval",
      "type": "event"
    },
    {
      "anonymous": false,
      "inputs": [
        {
          "indexed": true,
          "internalType": "bytes32",
          "name": "role",
          "type": "bytes32"
        },
        {
          "indexed": true,
          "internalType": "bytes32",
          "name": "previousAdminRole",
          "type": "bytes32"
        },
        {
          "indexed": true,
          "internalType": "bytes32",
          "name": "newAdminRole",
          "type": "bytes32"
        }
      ],
      "name": "RoleAdminChanged",
      "type": "event"
    },
    {
      "anonymous": false,
      "inputs": [
        {
          "indexed": true,
          "internalType": "bytes32",
          "name": "role",
          "type": "bytes32"
        },
        {
          "indexed": true,
          "internalType": "address",
          "name": "account",
          "type": "address"
        },
        {
          "indexed": true,
          "internalType": "address",
          "name": "sender",
          "type": "address"
        }
      ],
      "name": "RoleGranted",
      "type": "event"
    },
    {
      "anonymous": false,
      "inputs": [
        {
          "indexed": true,
          "internalType": "bytes32",
          "name": "role",
          "type": "bytes32"
        },
        {
          "indexed": true,
          "internalType": "address",
          "name": "account",
          "type": "address"
        },
        {
          "indexed": true,
          "internalType": "address",
          "name": "sender",
          "type": "address"
        }
      ],
      "name": "RoleRevoked",
      "type": "event"
    },
    {
      "anonymous": false,
      "inputs": [
        {
          "indexed": false,
          "internalType": "uint256",
          "name": "id",
          "type": "uint256"
        }
      ],
      "name": "Snapshot",
      "type": "event"
    },
    {
      "anonymous": false,
      "inputs": [
        {
          "indexed": true,
          "internalType": "address",
          "name": "from",
          "type": "address"
        },
        {
          "indexed": true,
          "internalType": "address",
          "name": "to",
          "type": "address"
        },
        {
          "indexed": false,
          "internalType": "uint256",
          "name": "value",
          "type": "uint256"
        }
      ],
      "name": "Transfer",
      "type": "event"
    },
    {
      "inputs": [],
      "name": "DEFAULT_ADMIN_ROLE",
      "outputs": [
        {
          "internalType": "bytes32",
          "name": "",
          "type": "bytes32"
        }
      ],
      "stateMutability": "view",
      "type": "function"
    },
    {
      "inputs": [],
      "name": "SNAPSHOT_MAKER_ROLE",
      "outputs": [
        {
          "internalType": "bytes32",
          "name": "",
          "type": "bytes32"
        }
      ],
      "stateMutability": "view",
      "type": "function"
    },
    {
      "inputs": [
        {
          "internalType": "address",
          "name": "owner",
          "type": "address"
        },
        {
          "internalType": "address",
          "name": "spender",
          "type": "address"
        }
      ],
      "name": "allowance",
      "outputs": [
        {
          "internalType": "uint256",
          "name": "",
          "type": "uint256"
        }
      ],
      "stateMutability": "view",
      "type": "function"
    },
    {
      "inputs": [
        {
          "internalType": "address",
          "name": "spender",
          "type": "address"
        },
        {
          "internalType": "uint256",
          "name": "amount",
          "type": "uint256"
        }
      ],
      "name": "approve",
      "outputs": [
        {
          "internalType": "bool",
          "name": "",
          "type": "bool"
        }
      ],
      "stateMutability": "nonpayable",
      "type": "function"
    },
    {
      "inputs": [
        {
          "internalType": "address",
          "name": "account",
          "type": "address"
        }
      ],
      "name": "balanceOf",
      "outputs": [
        {
          "internalType": "uint256",
          "name": "",
          "type": "uint256"
        }
      ],
      "stateMutability": "view",
      "type": "function"
    },
    {
      "inputs": [
        {
          "internalType": "address",
          "name": "account",
          "type": "address"
        },
        {
          "internalType": "uint256",
          "name": "snapshotId",
          "type": "uint256"
        }
      ],
      "name": "balanceOfAt",
      "outputs": [
        {
          "internalType": "uint256",
          "name": "",
          "type": "uint256"
        }
      ],
      "stateMutability": "view",
      "type": "function"
    },
    {
      "inputs": [],
      "name": "decimals",
      "outputs": [
        {
          "internalType": "uint8",
          "name": "",
          "type": "uint8"
        }
      ],
      "stateMutability": "view",
      "type": "function"
    },
    {
      "inputs": [
        {
          "internalType": "address",
          "name": "spender",
          "type": "address"
        },
        {
          "internalType": "uint256",
          "name": "subtractedValue",
          "type": "uint256"
        }
      ],
      "name": "decreaseAllowance",
      "outputs": [
        {
          "internalType": "bool",
          "name": "",
          "type": "bool"
        }
      ],
      "stateMutability": "nonpayable",
      "type": "function"
    },
    {
      "inputs": [
        {
          "internalType": "bytes32",
          "name": "role",
          "type": "bytes32"
        }
      ],
      "name": "getRoleAdmin",
      "outputs": [
        {
          "internalType": "bytes32",
          "name": "",
          "type": "bytes32"
        }
      ],
      "stateMutability": "view",
      "type": "function"
    },
    {
      "inputs": [
        {
          "internalType": "bytes32",
          "name": "role",
          "type": "bytes32"
        },
        {
          "internalType": "address",
          "name": "account",
          "type": "address"
        }
      ],
      "name": "grantRole",
      "outputs": [],
      "stateMutability": "nonpayable",
      "type": "function"
    },
    {
      "inputs": [
        {
          "internalType": "bytes32",
          "name": "role",
          "type": "bytes32"
        },
        {
          "internalType": "address",
          "name": "account",
          "type": "address"
        }
      ],
      "name": "hasRole",
      "outputs": [
        {
          "internalType": "bool",
          "name": "",
          "type": "bool"
        }
      ],
      "stateMutability": "view",
      "type": "function"
    },
    {
      "inputs": [
        {
          "internalType": "address",
          "name": "spender",
          "type": "address"
        },
        {
          "internalType": "uint256",
          "name": "addedValue",
          "type": "uint256"
        }
      ],
      "name": "increaseAllowance",
      "outputs": [
        {
          "internalType": "bool",
          "name": "",
          "type": "bool"
        }
      ],
      "stateMutability": "nonpayable",
      "type": "function"
    },
    {
      "inputs": [
        {
          "internalType": "address",
          "name": "account",
          "type": "address"
        }
      ],
      "name": "isSnapshotMaker",
      "outputs": [
        {
          "internalType": "bool",
          "name": "",
          "type": "bool"
        }
      ],
      "stateMutability": "view",
      "type": "function"
    },
    {
      "inputs": [],
      "name": "name",
      "outputs": [
        {
          "internalType": "string",
          "name": "",
          "type": "string"
        }
      ],
      "stateMutability": "view",
      "type": "function"
    },
    {
      "inputs": [
        {
          "internalType": "bytes32",
          "name": "role",
          "type": "bytes32"
        },
        {
          "internalType": "address",
          "name": "account",
          "type": "address"
        }
      ],
      "name": "renounceRole",
      "outputs": [],
      "stateMutability": "nonpayable",
      "type": "function"
    },
    {
      "inputs": [
        {
          "internalType": "bytes32",
          "name": "role",
          "type": "bytes32"
        },
        {
          "internalType": "address",
          "name": "account",
          "type": "address"
        }
      ],
      "name": "revokeRole",
      "outputs": [],
      "stateMutability": "nonpayable",
      "type": "function"
    },
    {
      "inputs": [],
      "name": "snapshot",
      "outputs": [
        {
          "internalType": "uint256",
          "name": "",
          "type": "uint256"
        }
      ],
      "stateMutability": "nonpayable",
      "type": "function"
    },
    {
      "inputs": [
        {
          "internalType": "bytes4",
          "name": "interfaceId",
          "type": "bytes4"
        }
      ],
      "name": "supportsInterface",
      "outputs": [
        {
          "internalType": "bool",
          "name": "",
          "type": "bool"
        }
      ],
      "stateMutability": "view",
      "type": "function"
    },
    {
      "inputs": [],
      "name": "symbol",
      "outputs": [
        {
          "internalType": "string",
          "name": "",
          "type": "string"
        }
      ],
      "stateMutability": "view",
      "type": "function"
    },
    {
      "inputs": [],
      "name": "totalSupply",
      "outputs": [
        {
          "internalType": "uint256",
          "name": "",
          "type": "uint256"
        }
      ],
      "stateMutability": "view",
      "type": "function"
    },
    {
      "inputs": [
        {
          "internalType": "uint256",
          "name": "snapshotId",
          "type": "uint256"
        }
      ],
      "name": "totalSupplyAt",
      "outputs": [
        {
          "internalType": "uint256",
          "name": "",
          "type": "uint256"
        }
      ],
      "stateMutability": "view",
      "type": "function"
    },
    {
      "inputs": [
        {
          "internalType": "address",
          "name": "recipient",
          "type": "address"
        },
        {
          "internalType": "uint256",
          "name": "amount",
          "type": "uint256"
        }
      ],
      "name": "transfer",
      "outputs": [
        {
          "internalType": "bool",
          "name": "",
          "type": "bool"
        }
      ],
      "stateMutability": "nonpayable",
      "type": "function"
    },
    {
      "inputs": [
        {
          "internalType": "address",
          "name": "sender",
          "type": "address"
        },
        {
          "internalType": "address",
          "name": "recipient",
          "type": "address"
        },
        {
          "internalType": "uint256",
          "name": "amount",
          "type": "uint256"
        }
      ],
      "name": "transferFrom",
      "outputs": [
        {
          "internalType": "bool",
          "name": "",
          "type": "bool"
        }
      ],
      "stateMutability": "nonpayable",
      "type": "function"
    }
  ],
  "transactionHash": "0xc4bdef0db2afa5cc1129e9dc9bb2867b5c47557d4b65bf67a224f40281b8b359",
  "args": [],
  "solcInputHash": "bf93129e1091aeafe75dffcc40db3fb5",
  "bytecode": "0x60806040523480156200001157600080fd5b506040518060400160405280600a81526020017f454c464920546f6b656e000000000000000000000000000000000000000000008152506040518060400160405280600481526020017f454c464900000000000000000000000000000000000000000000000000000000815250816003908051906020019062000096929190620006bc565b508060049080519060200190620000af929190620006bc565b505050620000cf336a52b7d2dcc80cd2e4000000620000ea60201b60201c565b620000e46000801b336200024f60201b60201c565b62000953565b600073ffffffffffffffffffffffffffffffffffffffff168273ffffffffffffffffffffffffffffffffffffffff1614156200015d576040517f08c379a00000000000000000000000000000000000000000000000000000000081526004016200015490620007a4565b60405180910390fd5b62000171600083836200026560201b60201c565b8060026000828254620001859190620007f4565b92505081905550806000808473ffffffffffffffffffffffffffffffffffffffff1673ffffffffffffffffffffffffffffffffffffffff1681526020019081526020016000206000828254620001dc9190620007f4565b925050819055508173ffffffffffffffffffffffffffffffffffffffff16600073ffffffffffffffffffffffffffffffffffffffff167fddf252ad1be2c89b69c2b068fc378daa952ba7f163c4a11628f55a4df523b3ef83604051620002439190620007c6565b60405180910390a35050565b6200026182826200036060201b60201c565b5050565b6200027d8383836200045260201b62000cda1760201c565b600073ffffffffffffffffffffffffffffffffffffffff168373ffffffffffffffffffffffffffffffffffffffff161415620002da57620002c4826200045760201b60201c565b620002d4620004ba60201b60201c565b6200035b565b600073ffffffffffffffffffffffffffffffffffffffff168273ffffffffffffffffffffffffffffffffffffffff161415620003375762000321836200045760201b60201c565b62000331620004ba60201b60201c565b6200035a565b62000348836200045760201b60201c565b62000359826200045760201b60201c565b5b5b505050565b620003728282620004de60201b60201c565b6200044e5760016009600084815260200190815260200160002060000160008373ffffffffffffffffffffffffffffffffffffffff1673ffffffffffffffffffffffffffffffffffffffff16815260200190815260200160002060006101000a81548160ff021916908315150217905550620003f36200054960201b60201c565b73ffffffffffffffffffffffffffffffffffffffff168173ffffffffffffffffffffffffffffffffffffffff16837f2f8788117e7eff1d82e926ec794901d17c78024a50270940304540a733656f0d60405160405180910390a45b5050565b505050565b620004b7600560008373ffffffffffffffffffffffffffffffffffffffff1673ffffffffffffffffffffffffffffffffffffffff168152602001908152602001600020620004ab836200055160201b60201c565b6200059960201b60201c565b50565b620004dc6006620004d06200062c60201b60201c565b6200059960201b60201c565b565b60006009600084815260200190815260200160002060000160008373ffffffffffffffffffffffffffffffffffffffff1673ffffffffffffffffffffffffffffffffffffffff16815260200190815260200160002060009054906101000a900460ff16905092915050565b600033905090565b60008060008373ffffffffffffffffffffffffffffffffffffffff1673ffffffffffffffffffffffffffffffffffffffff168152602001908152602001600020549050919050565b6000620005b260086200063660201b62000cdf1760201c565b905080620005c9846000016200064460201b60201c565b1015620006275782600001819080600181540180825580915050600190039060005260206000200160009091909190915055826001018290806001815401808255809150506001900390600052602060002001600090919091909150555b505050565b6000600254905090565b600081600001549050919050565b600080828054905014156200065d5760009050620006b7565b816001838054905062000671919062000851565b81548110620006a9577f4e487b7100000000000000000000000000000000000000000000000000000000600052603260045260246000fd5b906000526020600020015490505b919050565b828054620006ca9062000896565b90600052602060002090601f016020900481019282620006ee57600085556200073a565b82601f106200070957805160ff19168380011785556200073a565b828001600101855582156200073a579182015b82811115620007395782518255916020019190600101906200071c565b5b5090506200074991906200074d565b5090565b5b80821115620007685760008160009055506001016200074e565b5090565b60006200077b601f83620007e3565b915062000788826200092a565b602082019050919050565b6200079e816200088c565b82525050565b60006020820190508181036000830152620007bf816200076c565b9050919050565b6000602082019050620007dd600083018462000793565b92915050565b600082825260208201905092915050565b600062000801826200088c565b91506200080e836200088c565b9250827fffffffffffffffffffffffffffffffffffffffffffffffffffffffffffffffff03821115620008465762000845620008cc565b5b828201905092915050565b60006200085e826200088c565b91506200086b836200088c565b925082821015620008815762000880620008cc565b5b828203905092915050565b6000819050919050565b60006002820490506001821680620008af57607f821691505b60208210811415620008c657620008c5620008fb565b5b50919050565b7f4e487b7100000000000000000000000000000000000000000000000000000000600052601160045260246000fd5b7f4e487b7100000000000000000000000000000000000000000000000000000000600052602260045260246000fd5b7f45524332303a206d696e7420746f20746865207a65726f206164647265737300600082015250565b612a5880620009636000396000f3fe608060405234801561001057600080fd5b506004361061014d5760003560e01c80634ee2cd7e116100c35780639c0f5fdb1161007c5780639c0f5fdb14610400578063a217fddf1461041e578063a457c2d71461043c578063a9059cbb1461046c578063d547741f1461049c578063dd62ed3e146104b85761014d565b80634ee2cd7e1461030457806370a082311461033457806391d148541461036457806395d89b41146103945780639711715a146103b2578063981b24d0146103d05761014d565b806323b872dd1161011557806323b872dd1461021e578063248a9ca31461024e5780632f2ff15d1461027e578063313ce5671461029a57806336568abe146102b857806339509351146102d45761014d565b806301ffc9a71461015257806306fdde0314610182578063095ea7b3146101a057806309de0b44146101d057806318160ddd14610200575b600080fd5b61016c60048036038101906101679190611e09565b6104e8565b6040516101799190612125565b60405180910390f35b61018a610562565b604051610197919061215b565b60405180910390f35b6101ba60048036038101906101b59190611d68565b6105f4565b6040516101c79190612125565b60405180910390f35b6101ea60048036038101906101e59190611cb4565b610612565b6040516101f79190612125565b60405180910390f35b610208610624565b60405161021591906122fd565b60405180910390f35b61023860048036038101906102339190611d19565b61062e565b6040516102459190612125565b60405180910390f35b61026860048036038101906102639190611da4565b61072f565b6040516102759190612140565b60405180910390f35b61029860048036038101906102939190611dcd565b61074f565b005b6102a2610778565b6040516102af9190612318565b60405180910390f35b6102d260048036038101906102cd9190611dcd565b610781565b005b6102ee60048036038101906102e99190611d68565b610804565b6040516102fb9190612125565b60405180910390f35b61031e60048036038101906103199190611d68565b6108b0565b60405161032b91906122fd565b60405180910390f35b61034e60048036038101906103499190611cb4565b610920565b60405161035b91906122fd565b60405180910390f35b61037e60048036038101906103799190611dcd565b610968565b60405161038b9190612125565b60405180910390f35b61039c6109d3565b6040516103a9919061215b565b60405180910390f35b6103ba610a65565b6040516103c791906122fd565b60405180910390f35b6103ea60048036038101906103e59190611e32565b610abc565b6040516103f791906122fd565b60405180910390f35b610408610aed565b6040516104159190612140565b60405180910390f35b610426610b11565b6040516104339190612140565b60405180910390f35b61045660048036038101906104519190611d68565b610b18565b6040516104639190612125565b60405180910390f35b61048660048036038101906104819190611d68565b610c0c565b6040516104939190612125565b60405180910390f35b6104b660048036038101906104b19190611dcd565b610c2a565b005b6104d260048036038101906104cd9190611cdd565b610c53565b6040516104df91906122fd565b60405180910390f35b60007f7965db0b000000000000000000000000000000000000000000000000000000007bffffffffffffffffffffffffffffffffffffffffffffffffffffffff1916827bffffffffffffffffffffffffffffffffffffffffffffffffffffffff1916148061055b575061055a82610ced565b5b9050919050565b60606003805461057190612557565b80601f016020809104026020016040519081016040528092919081815260200182805461059d90612557565b80156105ea5780601f106105bf576101008083540402835291602001916105ea565b820191906000526020600020905b8154815290600101906020018083116105cd57829003601f168201915b5050505050905090565b6000610608610601610d57565b8484610d5f565b6001905092915050565b600061061d82610f2a565b9050919050565b6000600254905090565b600061063b848484610f5d565b6000600160008673ffffffffffffffffffffffffffffffffffffffff1673ffffffffffffffffffffffffffffffffffffffff1681526020019081526020016000206000610686610d57565b73ffffffffffffffffffffffffffffffffffffffff1673ffffffffffffffffffffffffffffffffffffffff16815260200190815260200160002054905082811015610706576040517f08c379a00000000000000000000000000000000000000000000000000000000081526004016106fd9061221d565b60405180910390fd5b61072385610712610d57565b858461071e919061243b565b610d5f565b60019150509392505050565b600060096000838152602001908152602001600020600101549050919050565b6107588261072f565b61076981610764610d57565b6111dc565b6107738383611279565b505050565b60006012905090565b610789610d57565b73ffffffffffffffffffffffffffffffffffffffff168173ffffffffffffffffffffffffffffffffffffffff16146107f6576040517f08c379a00000000000000000000000000000000000000000000000000000000081526004016107ed906122dd565b60405180910390fd5b610800828261135a565b5050565b60006108a6610811610d57565b84846001600061081f610d57565b73ffffffffffffffffffffffffffffffffffffffff1673ffffffffffffffffffffffffffffffffffffffff16815260200190815260200160002060008873ffffffffffffffffffffffffffffffffffffffff1673ffffffffffffffffffffffffffffffffffffffff168152602001908152602001600020546108a1919061235a565b610d5f565b6001905092915050565b60008060006108fd84600560008873ffffffffffffffffffffffffffffffffffffffff1673ffffffffffffffffffffffffffffffffffffffff16815260200190815260200160002061143c565b91509150816109145761090f85610920565b610916565b805b9250505092915050565b60008060008373ffffffffffffffffffffffffffffffffffffffff1673ffffffffffffffffffffffffffffffffffffffff168152602001908152602001600020549050919050565b60006009600084815260200190815260200160002060000160008373ffffffffffffffffffffffffffffffffffffffff1673ffffffffffffffffffffffffffffffffffffffff16815260200190815260200160002060009054906101000a900460ff16905092915050565b6060600480546109e290612557565b80601f0160208091040260200160405190810160405280929190818152602001828054610a0e90612557565b8015610a5b5780601f10610a3057610100808354040283529160200191610a5b565b820191906000526020600020905b815481529060010190602001808311610a3e57829003601f168201915b5050505050905090565b6000610a7033610f2a565b610aaf576040517f08c379a0000000000000000000000000000000000000000000000000000000008152600401610aa69061229d565b60405180910390fd5b610ab761155a565b905090565b6000806000610acc84600661143c565b9150915081610ae257610add610624565b610ae4565b805b92505050919050565b7f943f924a979dffae6371ced4ac37db8c0d6a1e4d3b7cb4e803aa94649ddd65f781565b6000801b81565b60008060016000610b27610d57565b73ffffffffffffffffffffffffffffffffffffffff1673ffffffffffffffffffffffffffffffffffffffff16815260200190815260200160002060008573ffffffffffffffffffffffffffffffffffffffff1673ffffffffffffffffffffffffffffffffffffffff16815260200190815260200160002054905082811015610be4576040517f08c379a0000000000000000000000000000000000000000000000000000000008152600401610bdb906122bd565b60405180910390fd5b610c01610bef610d57565b858584610bfc919061243b565b610d5f565b600191505092915050565b6000610c20610c19610d57565b8484610f5d565b6001905092915050565b610c338261072f565b610c4481610c3f610d57565b6111dc565b610c4e838361135a565b505050565b6000600160008473ffffffffffffffffffffffffffffffffffffffff1673ffffffffffffffffffffffffffffffffffffffff16815260200190815260200160002060008373ffffffffffffffffffffffffffffffffffffffff1673ffffffffffffffffffffffffffffffffffffffff16815260200190815260200160002054905092915050565b505050565b600081600001549050919050565b60007f01ffc9a7000000000000000000000000000000000000000000000000000000007bffffffffffffffffffffffffffffffffffffffffffffffffffffffff1916827bffffffffffffffffffffffffffffffffffffffffffffffffffffffff1916149050919050565b600033905090565b600073ffffffffffffffffffffffffffffffffffffffff168373ffffffffffffffffffffffffffffffffffffffff161415610dcf576040517f08c379a0000000000000000000000000000000000000000000000000000000008152600401610dc69061225d565b60405180910390fd5b600073ffffffffffffffffffffffffffffffffffffffff168273ffffffffffffffffffffffffffffffffffffffff161415610e3f576040517f08c379a0000000000000000000000000000000000000000000000000000000008152600401610e36906121dd565b60405180910390fd5b80600160008573ffffffffffffffffffffffffffffffffffffffff1673ffffffffffffffffffffffffffffffffffffffff16815260200190815260200160002060008473ffffffffffffffffffffffffffffffffffffffff1673ffffffffffffffffffffffffffffffffffffffff168152602001908152602001600020819055508173ffffffffffffffffffffffffffffffffffffffff168373ffffffffffffffffffffffffffffffffffffffff167f8c5be1e5ebec7d5bd14f71427d1e84f3dd0314c0f7b2291e5b200ac8c7c3b92583604051610f1d91906122fd565b60405180910390a3505050565b6000610f567f943f924a979dffae6371ced4ac37db8c0d6a1e4d3b7cb4e803aa94649ddd65f783610968565b9050919050565b600073ffffffffffffffffffffffffffffffffffffffff168373ffffffffffffffffffffffffffffffffffffffff161415610fcd576040517f08c379a0000000000000000000000000000000000000000000000000000000008152600401610fc49061223d565b60405180910390fd5b600073ffffffffffffffffffffffffffffffffffffffff168273ffffffffffffffffffffffffffffffffffffffff16141561103d576040517f08c379a0000000000000000000000000000000000000000000000000000000008152600401611034906121bd565b60405180910390fd5b6110488383836115b2565b60008060008573ffffffffffffffffffffffffffffffffffffffff1673ffffffffffffffffffffffffffffffffffffffff168152602001908152602001600020549050818110156110ce576040517f08c379a00000000000000000000000000000000000000000000000000000000081526004016110c5906121fd565b60405180910390fd5b81816110da919061243b565b6000808673ffffffffffffffffffffffffffffffffffffffff1673ffffffffffffffffffffffffffffffffffffffff16815260200190815260200160002081905550816000808573ffffffffffffffffffffffffffffffffffffffff1673ffffffffffffffffffffffffffffffffffffffff168152602001908152602001600020600082825461116a919061235a565b925050819055508273ffffffffffffffffffffffffffffffffffffffff168473ffffffffffffffffffffffffffffffffffffffff167fddf252ad1be2c89b69c2b068fc378daa952ba7f163c4a11628f55a4df523b3ef846040516111ce91906122fd565b60405180910390a350505050565b6111e68282610968565b6112755761120b8173ffffffffffffffffffffffffffffffffffffffff16601461166c565b6112198360001c602061166c565b60405160200161122a9291906120eb565b6040516020818303038152906040526040517f08c379a000000000000000000000000000000000000000000000000000000000815260040161126c919061215b565b60405180910390fd5b5050565b6112838282610968565b6113565760016009600084815260200190815260200160002060000160008373ffffffffffffffffffffffffffffffffffffffff1673ffffffffffffffffffffffffffffffffffffffff16815260200190815260200160002060006101000a81548160ff0219169083151502179055506112fb610d57565b73ffffffffffffffffffffffffffffffffffffffff168173ffffffffffffffffffffffffffffffffffffffff16837f2f8788117e7eff1d82e926ec794901d17c78024a50270940304540a733656f0d60405160405180910390a45b5050565b6113648282610968565b156114385760006009600084815260200190815260200160002060000160008373ffffffffffffffffffffffffffffffffffffffff1673ffffffffffffffffffffffffffffffffffffffff16815260200190815260200160002060006101000a81548160ff0219169083151502179055506113dd610d57565b73ffffffffffffffffffffffffffffffffffffffff168173ffffffffffffffffffffffffffffffffffffffff16837ff6391f5c32d9c69d2a47ea670b442974b53935d1edc7fd64eb21e047a839171b60405160405180910390a45b5050565b60008060008411611482576040517f08c379a00000000000000000000000000000000000000000000000000000000081526004016114799061227d565b60405180910390fd5b61148c6008610cdf565b8411156114ce576040517f08c379a00000000000000000000000000000000000000000000000000000000081526004016114c59061217d565b60405180910390fd5b60006114e6858560000161196690919063ffffffff16565b90508360000180549050811415611504576000809250925050611553565b6001846001018281548110611542577f4e487b7100000000000000000000000000000000000000000000000000000000600052603260045260246000fd5b906000526020600020015492509250505b9250929050565b60006115666008611a8c565b60006115726008610cdf565b90507f8030e83b04d87bef53480e26263266d6ca66863aa8506aca6f2559d18aa1cb67816040516115a391906122fd565b60405180910390a18091505090565b6115bd838383610cda565b600073ffffffffffffffffffffffffffffffffffffffff168373ffffffffffffffffffffffffffffffffffffffff161415611608576115fb82611aa2565b611603611af5565b611667565b600073ffffffffffffffffffffffffffffffffffffffff168273ffffffffffffffffffffffffffffffffffffffff1614156116535761164683611aa2565b61164e611af5565b611666565b61165c83611aa2565b61166582611aa2565b5b5b505050565b60606000600283600261167f91906123e1565b611689919061235a565b67ffffffffffffffff8111156116c8577f4e487b7100000000000000000000000000000000000000000000000000000000600052604160045260246000fd5b6040519080825280601f01601f1916602001820160405280156116fa5781602001600182028036833780820191505090505b5090507f300000000000000000000000000000000000000000000000000000000000000081600081518110611758577f4e487b7100000000000000000000000000000000000000000000000000000000600052603260045260246000fd5b60200101907effffffffffffffffffffffffffffffffffffffffffffffffffffffffffffff1916908160001a9053507f7800000000000000000000000000000000000000000000000000000000000000816001815181106117e2577f4e487b7100000000000000000000000000000000000000000000000000000000600052603260045260246000fd5b60200101907effffffffffffffffffffffffffffffffffffffffffffffffffffffffffffff1916908160001a9053506000600184600261182291906123e1565b61182c919061235a565b90505b6001811115611918577f3031323334353637383961626364656600000000000000000000000000000000600f861660108110611894577f4e487b7100000000000000000000000000000000000000000000000000000000600052603260045260246000fd5b1a60f81b8282815181106118d1577f4e487b7100000000000000000000000000000000000000000000000000000000600052603260045260246000fd5b60200101907effffffffffffffffffffffffffffffffffffffffffffffffffffffffffffff1916908160001a905350600485901c9450806119119061252d565b905061182f565b506000841461195c576040517f08c379a00000000000000000000000000000000000000000000000000000000081526004016119539061219d565b60405180910390fd5b8091505092915050565b6000808380549050141561197d5760009050611a86565b600080848054905090505b80821015611a0757600061199c8383611b09565b9050848682815481106119d8577f4e487b7100000000000000000000000000000000000000000000000000000000600052603260045260246000fd5b906000526020600020015411156119f157809150611a01565b6001816119fe919061235a565b92505b50611988565b600082118015611a6557508385600184611a21919061243b565b81548110611a58577f4e487b7100000000000000000000000000000000000000000000000000000000600052603260045260246000fd5b9060005260206000200154145b15611a8057600182611a77919061243b565b92505050611a86565b81925050505b92915050565b6001816000016000828254019250508190555050565b611af2600560008373ffffffffffffffffffffffffffffffffffffffff1673ffffffffffffffffffffffffffffffffffffffff168152602001908152602001600020611aed83610920565b611b70565b50565b611b076006611b02610624565b611b70565b565b600060028083611b199190612589565b600285611b269190612589565b611b30919061235a565b611b3a91906123b0565b600283611b4791906123b0565b600285611b5491906123b0565b611b5e919061235a565b611b68919061235a565b905092915050565b6000611b7c6008610cdf565b905080611b8b84600001611bed565b1015611be85782600001819080600181540180825580915050600190039060005260206000200160009091909190915055826001018290806001815401808255809150506001900390600052602060002001600090919091909150555b505050565b60008082805490501415611c045760009050611c5b565b8160018380549050611c16919061243b565b81548110611c4d577f4e487b7100000000000000000000000000000000000000000000000000000000600052603260045260246000fd5b906000526020600020015490505b919050565b600081359050611c6f816129c6565b92915050565b600081359050611c84816129dd565b92915050565b600081359050611c99816129f4565b92915050565b600081359050611cae81612a0b565b92915050565b600060208284031215611cc657600080fd5b6000611cd484828501611c60565b91505092915050565b60008060408385031215611cf057600080fd5b6000611cfe85828601611c60565b9250506020611d0f85828601611c60565b9150509250929050565b600080600060608486031215611d2e57600080fd5b6000611d3c86828701611c60565b9350506020611d4d86828701611c60565b9250506040611d5e86828701611c9f565b9150509250925092565b60008060408385031215611d7b57600080fd5b6000611d8985828601611c60565b9250506020611d9a85828601611c9f565b9150509250929050565b600060208284031215611db657600080fd5b6000611dc484828501611c75565b91505092915050565b60008060408385031215611de057600080fd5b6000611dee85828601611c75565b9250506020611dff85828601611c60565b9150509250929050565b600060208284031215611e1b57600080fd5b6000611e2984828501611c8a565b91505092915050565b600060208284031215611e4457600080fd5b6000611e5284828501611c9f565b91505092915050565b611e6481612481565b82525050565b611e738161248d565b82525050565b6000611e8482612333565b611e8e818561233e565b9350611e9e8185602086016124fa565b611ea781612647565b840191505092915050565b6000611ebd82612333565b611ec7818561234f565b9350611ed78185602086016124fa565b80840191505092915050565b6000611ef0601d8361233e565b9150611efb82612658565b602082019050919050565b6000611f1360208361233e565b9150611f1e82612681565b602082019050919050565b6000611f3660238361233e565b9150611f41826126aa565b604082019050919050565b6000611f5960228361233e565b9150611f64826126f9565b604082019050919050565b6000611f7c60268361233e565b9150611f8782612748565b604082019050919050565b6000611f9f60288361233e565b9150611faa82612797565b604082019050919050565b6000611fc260258361233e565b9150611fcd826127e6565b604082019050919050565b6000611fe560248361233e565b9150611ff082612835565b604082019050919050565b600061200860168361233e565b915061201382612884565b602082019050919050565b600061202b60178361234f565b9150612036826128ad565b601782019050919050565b600061204e601d8361233e565b9150612059826128d6565b602082019050919050565b600061207160258361233e565b915061207c826128ff565b604082019050919050565b600061209460118361234f565b915061209f8261294e565b601182019050919050565b60006120b7602f8361233e565b91506120c282612977565b604082019050919050565b6120d6816124e3565b82525050565b6120e5816124ed565b82525050565b60006120f68261201e565b91506121028285611eb2565b915061210d82612087565b91506121198284611eb2565b91508190509392505050565b600060208201905061213a6000830184611e5b565b92915050565b60006020820190506121556000830184611e6a565b92915050565b600060208201905081810360008301526121758184611e79565b905092915050565b6000602082019050818103600083015261219681611ee3565b9050919050565b600060208201905081810360008301526121b681611f06565b9050919050565b600060208201905081810360008301526121d681611f29565b9050919050565b600060208201905081810360008301526121f681611f4c565b9050919050565b6000602082019050818103600083015261221681611f6f565b9050919050565b6000602082019050818103600083015261223681611f92565b9050919050565b6000602082019050818103600083015261225681611fb5565b9050919050565b6000602082019050818103600083015261227681611fd8565b9050919050565b6000602082019050818103600083015261229681611ffb565b9050919050565b600060208201905081810360008301526122b681612041565b9050919050565b600060208201905081810360008301526122d681612064565b9050919050565b600060208201905081810360008301526122f6816120aa565b9050919050565b600060208201905061231260008301846120cd565b92915050565b600060208201905061232d60008301846120dc565b92915050565b600081519050919050565b600082825260208201905092915050565b600081905092915050565b6000612365826124e3565b9150612370836124e3565b9250827fffffffffffffffffffffffffffffffffffffffffffffffffffffffffffffffff038211156123a5576123a46125ba565b5b828201905092915050565b60006123bb826124e3565b91506123c6836124e3565b9250826123d6576123d56125e9565b5b828204905092915050565b60006123ec826124e3565b91506123f7836124e3565b9250817fffffffffffffffffffffffffffffffffffffffffffffffffffffffffffffffff04831182151516156124305761242f6125ba565b5b828202905092915050565b6000612446826124e3565b9150612451836124e3565b925082821015612464576124636125ba565b5b828203905092915050565b600061247a826124c3565b9050919050565b60008115159050919050565b6000819050919050565b60007fffffffff0000000000000000000000000000000000000000000000000000000082169050919050565b600073ffffffffffffffffffffffffffffffffffffffff82169050919050565b6000819050919050565b600060ff82169050919050565b60005b838110156125185780820151818401526020810190506124fd565b83811115612527576000848401525b50505050565b6000612538826124e3565b9150600082141561254c5761254b6125ba565b5b600182039050919050565b6000600282049050600182168061256f57607f821691505b6020821081141561258357612582612618565b5b50919050565b6000612594826124e3565b915061259f836124e3565b9250826125af576125ae6125e9565b5b828206905092915050565b7f4e487b7100000000000000000000000000000000000000000000000000000000600052601160045260246000fd5b7f4e487b7100000000000000000000000000000000000000000000000000000000600052601260045260246000fd5b7f4e487b7100000000000000000000000000000000000000000000000000000000600052602260045260246000fd5b6000601f19601f8301169050919050565b7f4552433230536e617073686f743a206e6f6e6578697374656e74206964000000600082015250565b7f537472696e67733a20686578206c656e67746820696e73756666696369656e74600082015250565b7f45524332303a207472616e7366657220746f20746865207a65726f206164647260008201527f6573730000000000000000000000000000000000000000000000000000000000602082015250565b7f45524332303a20617070726f766520746f20746865207a65726f20616464726560008201527f7373000000000000000000000000000000000000000000000000000000000000602082015250565b7f45524332303a207472616e7366657220616d6f756e742065786365656473206260008201527f616c616e63650000000000000000000000000000000000000000000000000000602082015250565b7f45524332303a207472616e7366657220616d6f756e742065786365656473206160008201527f6c6c6f77616e6365000000000000000000000000000000000000000000000000602082015250565b7f45524332303a207472616e736665722066726f6d20746865207a65726f20616460008201527f6472657373000000000000000000000000000000000000000000000000000000602082015250565b7f45524332303a20617070726f76652066726f6d20746865207a65726f2061646460008201527f7265737300000000000000000000000000000000000000000000000000000000602082015250565b7f4552433230536e617073686f743a206964206973203000000000000000000000600082015250565b7f416363657373436f6e74726f6c3a206163636f756e7420000000000000000000600082015250565b7f5265737472696374656420746f20736e617073686f74206d616b65722e000000600082015250565b7f45524332303a2064656372656173656420616c6c6f77616e63652062656c6f7760008201527f207a65726f000000000000000000000000000000000000000000000000000000602082015250565b7f206973206d697373696e6720726f6c6520000000000000000000000000000000600082015250565b7f416363657373436f6e74726f6c3a2063616e206f6e6c792072656e6f756e636560008201527f20726f6c657320666f722073656c660000000000000000000000000000000000602082015250565b6129cf8161246f565b81146129da57600080fd5b50565b6129e68161248d565b81146129f157600080fd5b50565b6129fd81612497565b8114612a0857600080fd5b50565b612a14816124e3565b8114612a1f57600080fd5b5056fea26469706673582212202078a8092128c8e1a1796ccd8147a3183faa10627f10bd37150e060c41fd8b0a64736f6c63430008040033",
  "devdoc": {
    "kind": "dev",
    "methods": {
      "allowance(address,address)": {
        "details": "See {IERC20-allowance}."
      },
      "approve(address,uint256)": {
        "details": "See {IERC20-approve}. Requirements: - `spender` cannot be the zero address."
      },
      "balanceOf(address)": {
        "details": "See {IERC20-balanceOf}."
      },
      "balanceOfAt(address,uint256)": {
        "details": "Retrieves the balance of `account` at the time `snapshotId` was created."
      },
      "decimals()": {
        "details": "Returns the number of decimals used to get its user representation. For example, if `decimals` equals `2`, a balance of `505` tokens should be displayed to a user as `5,05` (`505 / 10 ** 2`). Tokens usually opt for a value of 18, imitating the relationship between Ether and Wei. This is the value {ERC20} uses, unless this function is overridden; NOTE: This information is only used for _display_ purposes: it in no way affects any of the arithmetic of the contract, including {IERC20-balanceOf} and {IERC20-transfer}."
      },
      "decreaseAllowance(address,uint256)": {
        "details": "Atomically decreases the allowance granted to `spender` by the caller. This is an alternative to {approve} that can be used as a mitigation for problems described in {IERC20-approve}. Emits an {Approval} event indicating the updated allowance. Requirements: - `spender` cannot be the zero address. - `spender` must have allowance for the caller of at least `subtractedValue`."
      },
      "getRoleAdmin(bytes32)": {
        "details": "Returns the admin role that controls `role`. See {grantRole} and {revokeRole}. To change a role's admin, use {_setRoleAdmin}."
      },
      "grantRole(bytes32,address)": {
        "details": "Grants `role` to `account`. If `account` had not been already granted `role`, emits a {RoleGranted} event. Requirements: - the caller must have ``role``'s admin role."
      },
      "hasRole(bytes32,address)": {
        "details": "Returns `true` if `account` has been granted `role`."
      },
      "increaseAllowance(address,uint256)": {
        "details": "Atomically increases the allowance granted to `spender` by the caller. This is an alternative to {approve} that can be used as a mitigation for problems described in {IERC20-approve}. Emits an {Approval} event indicating the updated allowance. Requirements: - `spender` cannot be the zero address."
      },
      "name()": {
        "details": "Returns the name of the token."
      },
      "renounceRole(bytes32,address)": {
        "details": "Revokes `role` from the calling account. Roles are often managed via {grantRole} and {revokeRole}: this function's purpose is to provide a mechanism for accounts to lose their privileges if they are compromised (such as when a trusted device is misplaced). If the calling account had been granted `role`, emits a {RoleRevoked} event. Requirements: - the caller must be `account`."
      },
      "revokeRole(bytes32,address)": {
        "details": "Revokes `role` from `account`. If `account` had been granted `role`, emits a {RoleRevoked} event. Requirements: - the caller must have ``role``'s admin role."
      },
      "supportsInterface(bytes4)": {
        "details": "See {IERC165-supportsInterface}."
      },
      "symbol()": {
        "details": "Returns the symbol of the token, usually a shorter version of the name."
      },
      "totalSupply()": {
        "details": "See {IERC20-totalSupply}."
      },
      "totalSupplyAt(uint256)": {
        "details": "Retrieves the total supply at the time `snapshotId` was created."
      },
      "transfer(address,uint256)": {
        "details": "See {IERC20-transfer}. Requirements: - `recipient` cannot be the zero address. - the caller must have a balance of at least `amount`."
      },
      "transferFrom(address,address,uint256)": {
        "details": "See {IERC20-transferFrom}. Emits an {Approval} event indicating the updated allowance. This is not required by the EIP. See the note at the beginning of {ERC20}. Requirements: - `sender` and `recipient` cannot be the zero address. - `sender` must have a balance of at least `amount`. - the caller must have allowance for ``sender``'s tokens of at least `amount`."
      }
    },
    "version": 1
  },
  "userdoc": {
    "kind": "user",
    "methods": {},
    "version": 1
  },
  "storageLayout": {
    "storage": [
      {
        "astId": 383,
        "contract": "contracts/token/ElyfiToken.sol:ElyfiToken",
        "label": "_balances",
        "offset": 0,
        "slot": "0",
        "type": "t_mapping(t_address,t_uint256)"
      },
      {
        "astId": 389,
        "contract": "contracts/token/ElyfiToken.sol:ElyfiToken",
        "label": "_allowances",
        "offset": 0,
        "slot": "1",
        "type": "t_mapping(t_address,t_mapping(t_address,t_uint256))"
      },
      {
        "astId": 391,
        "contract": "contracts/token/ElyfiToken.sol:ElyfiToken",
        "label": "_totalSupply",
        "offset": 0,
        "slot": "2",
        "type": "t_uint256"
      },
      {
        "astId": 393,
        "contract": "contracts/token/ElyfiToken.sol:ElyfiToken",
        "label": "_name",
        "offset": 0,
        "slot": "3",
        "type": "t_string_storage"
      },
      {
        "astId": 395,
        "contract": "contracts/token/ElyfiToken.sol:ElyfiToken",
        "label": "_symbol",
        "offset": 0,
        "slot": "4",
        "type": "t_string_storage"
      },
      {
        "astId": 980,
        "contract": "contracts/token/ElyfiToken.sol:ElyfiToken",
        "label": "_accountBalanceSnapshots",
        "offset": 0,
        "slot": "5",
        "type": "t_mapping(t_address,t_struct(Snapshots)975_storage)"
      },
      {
        "astId": 983,
        "contract": "contracts/token/ElyfiToken.sol:ElyfiToken",
        "label": "_totalSupplySnapshots",
        "offset": 0,
        "slot": "6",
        "type": "t_struct(Snapshots)975_storage"
      },
      {
        "astId": 986,
        "contract": "contracts/token/ElyfiToken.sol:ElyfiToken",
        "label": "_currentSnapshotId",
        "offset": 0,
        "slot": "8",
        "type": "t_struct(Counter)1411_storage"
      },
      {
        "astId": 62,
        "contract": "contracts/token/ElyfiToken.sol:ElyfiToken",
        "label": "_roles",
        "offset": 0,
        "slot": "9",
        "type": "t_mapping(t_bytes32,t_struct(RoleData)57_storage)"
      }
    ],
    "types": {
      "t_address": {
        "encoding": "inplace",
        "label": "address",
        "numberOfBytes": "20"
      },
      "t_array(t_uint256)dyn_storage": {
        "base": "t_uint256",
        "encoding": "dynamic_array",
        "label": "uint256[]",
        "numberOfBytes": "32"
      },
      "t_bool": {
        "encoding": "inplace",
        "label": "bool",
        "numberOfBytes": "1"
      },
      "t_bytes32": {
        "encoding": "inplace",
        "label": "bytes32",
        "numberOfBytes": "32"
      },
      "t_mapping(t_address,t_bool)": {
        "encoding": "mapping",
        "key": "t_address",
        "label": "mapping(address => bool)",
        "numberOfBytes": "32",
        "value": "t_bool"
      },
      "t_mapping(t_address,t_mapping(t_address,t_uint256))": {
        "encoding": "mapping",
        "key": "t_address",
        "label": "mapping(address => mapping(address => uint256))",
        "numberOfBytes": "32",
        "value": "t_mapping(t_address,t_uint256)"
      },
      "t_mapping(t_address,t_struct(Snapshots)975_storage)": {
        "encoding": "mapping",
        "key": "t_address",
        "label": "mapping(address => struct ERC20Snapshot.Snapshots)",
        "numberOfBytes": "32",
        "value": "t_struct(Snapshots)975_storage"
      },
      "t_mapping(t_address,t_uint256)": {
        "encoding": "mapping",
        "key": "t_address",
        "label": "mapping(address => uint256)",
        "numberOfBytes": "32",
        "value": "t_uint256"
      },
      "t_mapping(t_bytes32,t_struct(RoleData)57_storage)": {
        "encoding": "mapping",
        "key": "t_bytes32",
        "label": "mapping(bytes32 => struct AccessControl.RoleData)",
        "numberOfBytes": "32",
        "value": "t_struct(RoleData)57_storage"
      },
      "t_string_storage": {
        "encoding": "bytes",
        "label": "string",
        "numberOfBytes": "32"
      },
      "t_struct(Counter)1411_storage": {
        "encoding": "inplace",
        "label": "struct Counters.Counter",
        "members": [
          {
            "astId": 1410,
            "contract": "contracts/token/ElyfiToken.sol:ElyfiToken",
            "label": "_value",
            "offset": 0,
            "slot": "0",
            "type": "t_uint256"
          }
        ],
        "numberOfBytes": "32"
      },
      "t_struct(RoleData)57_storage": {
        "encoding": "inplace",
        "label": "struct AccessControl.RoleData",
        "members": [
          {
            "astId": 54,
            "contract": "contracts/token/ElyfiToken.sol:ElyfiToken",
            "label": "members",
            "offset": 0,
            "slot": "0",
            "type": "t_mapping(t_address,t_bool)"
          },
          {
            "astId": 56,
            "contract": "contracts/token/ElyfiToken.sol:ElyfiToken",
            "label": "adminRole",
            "offset": 0,
            "slot": "1",
            "type": "t_bytes32"
          }
        ],
        "numberOfBytes": "64"
      },
      "t_struct(Snapshots)975_storage": {
        "encoding": "inplace",
        "label": "struct ERC20Snapshot.Snapshots",
        "members": [
          {
            "astId": 971,
            "contract": "contracts/token/ElyfiToken.sol:ElyfiToken",
            "label": "ids",
            "offset": 0,
            "slot": "0",
            "type": "t_array(t_uint256)dyn_storage"
          },
          {
            "astId": 974,
            "contract": "contracts/token/ElyfiToken.sol:ElyfiToken",
            "label": "values",
            "offset": 0,
            "slot": "1",
            "type": "t_array(t_uint256)dyn_storage"
          }
        ],
        "numberOfBytes": "64"
      },
      "t_uint256": {
        "encoding": "inplace",
        "label": "uint256",
        "numberOfBytes": "32"
      }
    }
  }
}